:020000040000FA
:020000000528D1
:0800080009001030A300A40060
:10001000A500831603130030860083120313FF30FC
:10002000860034202028412021084D3C0318132845
:1000300023087C3C031C1328A3007D302102A4006C
:10004000232020282228250801302502A500031D91
:100050003328860F2F282308A500FF3086002408A8
:10006000A500003086000800831603132430980092
:1000700083120313903098008316031319309900EC
:100080000800831203138C1E4328831203131A08DB
:1000900083120313A100080083160313981C4E2833
:1000A0008312031322088312031399000800831696
:1000B00003130030810083120313A0308B008312DE
:1000C0000313833081000800A800FF30A7008312CB
:1000D0000313860083120313FF30A600A60B6E28BD
:0C00E000A70B6C28A80B652808007528E9
:02400E00393D3A
:00000001FF
