:020000040000FA
:020000000528D1
:0800080009000130A7000030DF
:100010008316031386008312031386000530A500A0
:10002000A600FF30A8000030A90038202428452071
:1000300020084D3C0318172825087C3C031C172872
:10004000A5007D302002A60083120313A70B3628DB
:100050002908060203192D2832282508A700280898
:10006000860036282608A700290886002428372875
:1000700083160313243098008312031390309800E2
:1000800083160313193099000800831203138C1E82
:100090004728831203131A0883120313A0000800D1
:1000A00083160313981C522883120313210883120A
:1000B0000313990008008316031300308100831294
:1000C0000313A0308B0083120313833081000800D8
:1000D000A400FF30A30083120313860083120313CE
:1000E000FF30A200A20B7228A30B7028A40B692872
:0400F0000800792863
:02400E00393D3A
:00000001FF
