:020000040000FA
:020000000528D1
:080008000900132036208316C5
:100010000313003086008312031300308600432050
:100020000A3060200F2883160313243098008312AF
:1000300003139030980083160313193099000800B9
:10004000831203138C1E2228831203131A088312AF
:100050000313A100080083160313981C2D28831294
:100060000313200883120313990008008316031357
:10007000013085008312031341309F008316031360
:1000800080309F000800831203131F15000000003A
:1000900000001F194628831203131E08831603133A
:1000A000981C5028831203139900831603131E080B
:1000B00083160313981C5A2883120313990008000F
:1000C000A700FF30A60083120313860083120313D8
:1000D000FF30A500A50B6A28A60B6828A70B61288E
:0200E000080016
:02400E00393D3A
:00000001FF
