:020000040000FA
:020000000528D1
:040002000034003492
:0800080009001C203B205D20D3
:100010002920A1087B3C031D0828482083120313D4
:10002000A208A0003220A308A00032207020A4085B
:10003000193C031C66201B288316031326309800E6
:100040008312031390309800831603132530990010
:100050000800831203138C1E2B289A0883120313A3
:10006000A100080083160313981C3428831203137D
:10007000A00899000800831603130130850083123D
:10008000031341309F008316031300309F000800C4
:10009000831203131F150000000000001F194B28D6
:1000A000831203139E0803108310A2008316031308
:1000B0009E0803108310A30008008316031300306A
:1000C0008600831203130030860008008312031396
:1000D00002308600080083120313003086000800F7
:0A00E00083120313220CA400080091
:00000001FF
