:020000040000FA
:020000003028A6
:040002000034003492
:08000800831203130B1D2F28C6
:10001000A320831203132C08AC0B2F288312031385
:1000200006082708782022084D3C03185A28200883
:100030007C3C031C5A282208A000A700270829029C
:10004000A8002E080602031926282B282708AC0032
:100050002D0886002F282808AC002E0886000900ED
:100060000130AC000030831603138600FF3083128A
:10007000031386006430A700A800FF30AD000030F5
:10008000AE007D30A9006430AB00AA005E20912054
:100090006D2022085020A3204C2827087820220811
:1000A0004D3C03185A2820087C3C031C5A2822087F
:1000B000A000A70027082902A80008008316031340
:1000C0002430980083120313903098008316031392
:1000D00019309900831203130800831203138C1E36
:1000E0006F28831203131A0883120313A200080057
:1000F000831203138C1E7F28831203131A088312A2
:100100000313A200080083120313A3008316031332
:10011000981C882883120313230883120313990061
:100120000800831603130230810083120313833007
:10013000810083120313AF008312031380308B00FE
:100140008312031308002F08831203138100831204
:1001500003138B160B11831203130800A600FF3044
:10016000A500FF30A400A40BB328A50BB128A60B53
:06017000AF280800BA28C8
:02400E00393D3A
:00000001FF
