:020000040000FA
:0200000039289D
:040002000034003492
:08000800831203130B1D3828BD
:100010002F08831203138100831203138B160B1115
:1000200083120313831203132C08AC0B382883129A
:10003000031306082708812022084D3C0318632873
:1000400020087C3C031C63282208A000A700270886
:100050002902A8002E08060203192F283428270891
:10006000AC002D08860038282808AC002E08860031
:1000700009000130AC000030831603138600FF3006
:100080008312031386006430A700A800FF30AD0080
:100090000030AE007D30A9006430AB00AA006720BC
:1000A0009A20762022085920AC2055282708812044
:1000B00022084D3C0318632820087C3C031C63285D
:1000C0002208A000A70027082902A800080083161C
:1000D0000313243098008312031390309800831682
:1000E00003131930990083120313080083120313BA
:1000F0008C1E7828831203131A0883120313A2009C
:100100000800831203138C1E8828831203131A0815
:1001100083120313A200080083120313A3008316A3
:100120000313981C912883120313230883120313CB
:100130009900080083160313023081008312031311
:100140008330810083120313AF00831203138030C6
:100150008B008312031308002F08831203138100FE
:10016000831203138B160B11831203130800A600CE
:10017000FF30A500FF30A400A40BBC28A50BBA28B3
:08018000A60BB8280800C328F3
:02400E00393F38
:00000001FF
