:020000040000FA
:020000000628D0
:040002000034003492
:08000800292009000130A800C5
:1000100000308316031386008312031386006430B6
:10002000A600A700FF30A9000030AA003D206020F4
:100030004A2021084D3C0318252820087C3C031C3D
:1000400025282108A0002008A6007D302002A70056
:10005000282883120313A80B3B282A080602031939
:10006000322837282608A800290886003B282708B8
:10007000A8002A08860008003C28831603132430B1
:1000800098008312031390309800831603131930DD
:1000900099000800831203138C1E4C28831203134B
:1000A0001A0883120313A100080083160313981C77
:1000B00057288312031322088312031399000800A0
:1000C000831603130030810083120313A0308B00CA
:1000D00083120313833081000800A500FF30A400C1
:1000E00083120313860083120313FF30A300A30BB4
:0E00F0007728A40B7528A50B6E2808007E2823
:02400E00393D3A
:00000001FF
