:020000040000FA
:020000002428B2
:040002000034003492
:08000800831203130B1D2328D2
:1000100083120313AA0B23282B08AA002C08AC0B6D
:10002000232883120313060840202E080602031912
:100030001A281F282708AC002D0886002328280826
:10004000AC002E08860009000130AC000030831699
:10005000031386008312031386006430A700A800F0
:10006000FF30AD000030AE007D30A9006430AB0041
:10007000AA005120842060202208432093203F289A
:1000800027086B2022084D3C03184D2820087C3C93
:10009000031C4D282208A000A70027082902A80059
:1000A0000800831603132430980083120313903042
:1000B0009800831603131930990083120313080064
:1000C000831203138C1E6228831203131A088312EF
:1000D0000313A2000800831203138C1E72288312DC
:1000E00003131A0883120313A200080083120313D8
:1000F000A30083160313981C7B2883120313230881
:10010000831203139900080083160313073081003C
:10011000831203139D3081008312031380308B0000
:10012000831203130800831203138B168312031325
:100130000800A600FF30A500FF30A400A40B9E28F5
:0C014000A50B9C28A60B9A280800A528F7
:02400E00393D3A
:00000001FF
