:020000040000FA
:020000002328B3
:040002000034003492
:08000800831203130B1D2228D3
:10001000AA0B22282B08AA00831203132C08AC0B6E
:1000200022288312031306082E0806020319192832
:100030001E282708AC002D08860022282808AC00BE
:100040002E08860009000130AC000030831603132F
:1000500086008312031386006430A700A800FF30D7
:10006000AD000030AE007D30A9006430AB00AA00C6
:100070004B207120582022084D3C031846282008A8
:100080007C3C031C46282208A000A7002708290260
:10009000A80080204A288316031324309800831276
:1000A0000313903098008316031319309900080049
:1000B000831203138C1E5A28831203131A08831207
:1000C0000313A200080083120313230883160313EB
:1000D000981C6828831203132308831203139900C2
:1000E00008008316031307308100831203139D3029
:1000F00081008312031380308B00831203130800E6
:10010000831203138B16831203130800A600FF301B
:10011000A500FF30A400A40B8B28A50B8928A60BF3
:0601200087280800922868
:02400E00393D3A
:00000001FF
