:020000040000FA
:020000000528D1
:0800080009000B202E203B2013
:100010000A305820072883160313243098008312CF
:1000200003139030980083160313193099000800C9
:10003000831203138C1E1A28831203131A088312C7
:100040000313A100080083160313981C25288312AC
:100050000313200883120313990008008316031367
:10006000013085008312031341309F008316031370
:1000700080309F000800831203131F15000000004A
:1000800000001F193E28831203131E088316031352
:10009000981C4828831203139900831603131E0823
:1000A00083160313981C5228831203139900080027
:1000B000A700FF30A600FF30A500A50B5D28A60B0A
:0800C0005B28A70B592808007A
:02400E00393D3A
:00000001FF
