:020000040000FA
:020000001428C2
:040002000034003492
:08000800831203130B1D1328E2
:10001000831203130B118B1683120313A303831292
:100020000313063081000900831603130130810099
:10003000831203130630810083120313A0308B0058
:1000400000308316031386002430831603139800B0
:10005000903083120313980019308316031399000C
:1000600000008312031386140000000083120313A0
:100070008C1E35280000831203131A088312031301
:10008000A200000083120313A00000004E3C831264
:1000900003130318352800004E3E7C3C83120313E3
:1000A000031C3528000000008312031320087D3C48
:1000B00083120313A1008610831203132108A300E7
:1000C000000083120313230B602800008312031324
:1000D0008614831203132008A30000008312031365
:0600E000230B6D285B28D4
:02400E00393F38
:00000001FF
