:020000040000FA
:020000000528D1
:040002000034003492
:0800080009000130A8000030DE
:100010008316031386008312031386006430A60040
:10002000A700FF30A9000030AA003B205E20482036
:1000300021084D3C0318242820087C3C031C24285C
:100040002108A0002008A6007D302002A70083120E
:100050000313A80B39282A0806020319302835286B
:100060002608A8002908860039282708A8002A0899
:10007000860027283A288316031324309800831219
:100080000313903098008316031319309900080069
:10009000831203138C1E4A28831203131A08831237
:1000A0000313A100080083160313981C552883121C
:1000B0000313220883120313990008008316031305
:1000C0000030810083120313A0308B0083120313CE
:1000D000833081000800A500FF30A40083120313C1
:1000E000860083120313FF30A300A30B7528A40B13
:0A00F0007328A50B6C2808007C287B
:02400E00393D3A
:00000001FF
