:020000040000FA
:020000000528D1
:040002000034003492
:0800080009000030A000A10076
:10001000A200A300A400A50017201030242021086E
:10002000A0003A202008A2002F200D2816288316B1
:100030000313243098008312031390309800831622
:100040000313193099000800831203138C1E26280D
:10005000831203131A0883120313A10008008316E6
:100060000313981C312883120313220883120313ED
:1000700099000800A500FF30A400FF30A300A30BE7
:0E0080003F28A40B3D28A50B3B28080046286E
:02400E00393D3A
:00000001FF
