:020000040000FA
:020000000528D1
:040002000034003492
:08000800090083160313003008
:10001000860083120313FF3086002D201C283A200F
:1000200021084D3C03180F2823087C3C031C0F2893
:10003000A3007D302102A4001F201C281E285D2063
:10004000A50B2C28860F28282308A500FF30860042
:100050002408A5000030860008008316031324300E
:1000600098008312031390309800831603131930FD
:1000700099000800831203138C1E3C28831203137B
:100080001A0883120313A100080083160313981C97
:1000900047288312031322088312031399000800D0
:1000A000831603130030810083120313A0308B00EA
:1000B00083120313833081000800A800FF30A700DB
:1000C00083120313860083120313FF30A600A60BCE
:0E00D0006728A70B6528A80B5E2808006E287D
:02400E00393D3A
:00000001FF
