:020000040000FA
:020000000528D1
:0800080009003E206120832065
:100010008C2083120313FF30A00056204B202108B0
:10002000A000562021087B3CA100A0005620A1087A
:10003000031D0928C830A00056206E208312031328
:100040009630A00056202208A00056202308A000C9
:1000500056206430A000562096203230A000562052
:100060002408A00056202408193C031C8C203928A1
:1000700091200130A000562056201D28831603131E
:1000800024309800831203139030980083160313D2
:10009000193099000800831203138C1E4D28831217
:1000A00003131A0883120313A10008008316031315
:1000B000981C5828831203132008831203139900F5
:1000C00008008316031301308500831203134130A7
:1000D0009F008316031300309F0008008312031350
:1000E0001F150000000000001F1971288312031360
:1000F0009E0803108310A200831603139E080310AA
:100100008310A300080083160313003086008312B7
:10011000031300308600080083120313FF308600AB
:1001200008008312031300308600080083120313B3
:080130000310220CA4000800DA
:02400E00393D3A
:00000001FF
