:020000040000FA
:020000000528D1
:040002000034003492
:0800080009001020A2002820CD
:10001000103033201D202108A200282006280F2898
:100020008316031324309800831203139030980032
:1000300083160313193099000800831203138C1ED2
:100040001F28831203131A0883120313A100080048
:1000500083160313981C2A28831203132208831281
:10006000031399000800A500FF30A40083120313B6
:10007000FF30A300A30B3A28A40B3828A50B342883
:04008000080041280B
:02400E00393D3A
:00000001FF
