:020000040000FA
:020000002328B3
:040002000034003492
:08000800831203130B1D2228D3
:10001000AA0B22282B08AA00831203132C08AC0B6E
:1000200022288312031306082E0806020319192832
:100030001E282708AC002D08860022282808AC00BE
:100040002E08860009000130AC000030831603132F
:1000500086008312031386006430A700A800FF30D7
:10006000AD000030AE007D30A9006430AB00AA00C6
:100070004B20582022084D3C0318462820087C3C81
:10008000031C46282208A0002008A70027082902F0
:10009000A8006E204A288316031324309800831288
:1000A0000313903098008316031319309900080049
:1000B000831203138C1E5A28831203131A08831207
:1000C0000313A200080083160313981C65288312EB
:1000D00003132308831203139900080083160313E4
:1000E0000730810083120313A0308B0083120313A7
:1000F0009D3081000800A600FF30A500FF30A4005D
:10010000A40B8028A50B7E28A60B7C280800872836
:02400E00393D3A
:00000001FF
