:020000040000FA
:020000001328C3
:040002000034003492
:08000800831203130B1D1228E3
:10001000000083120313A003831203130B11831236
:100020000313063009008316031301308100831285
:100030000313A0308B008312031306308100831654
:100040000313263098008312031390309800831610
:1000500003131930990083160313003086008312AE
:1000600003138616831203138C1E32288312031384
:100070001A0883120313A1004D3C831203130318C3
:10008000322800008312031321087C3C83120313DF
:10009000031C322800008312031321087D3C8312C5
:1000A0000313A20083120313210883120313A00079
:1000B0008312031386160030831203132006831263
:1000C0000313031D5B280000831603130030860012
:1000D000831203138612831203132208831203135D
:1000E000A000003083120313200683120313031DA4
:0600F000712800005228F7
:02400E00393F38
:00000001FF
