:020000040000FA
:020000002328B3
:040002000034003492
:08000800831203130B1D2228D3
:1000100002309620831203132A08A3007E20AA0B25
:1000200022288312031306082C0806020319192834
:100030001E282708AA002B08860022282808AA00C4
:100040002C08860009000130AA0000308316031333
:1000500086008312031386006430A700A800FF30D7
:10006000AB000030AC007D30A90066207320220870
:100070004D3C0318432820087C3C031C43282208DD
:10008000A0002008A70027082902A8007430A300B8
:100090007E206830A3007E200030A3007E20270849
:1000A000A3007E207430A3007E206C30A3007E204D
:1000B0000030A3007E202808A3007E200030A3008B
:1000C0007E200030A3007E2089206528831603133C
:1000D0002430980083120313903098008316031382
:1000E000193099000800831203138C1E752883129F
:1000F00003131A0883120313A200080083160313C4
:10010000981C802883120313230883120313990079
:100110000800831603130030810083120313A030FC
:100120008B0083120313833081000800A600FF3088
:10013000A500FF30A400A40B9B28A50B9928A60BB3
:0601400097280800A22828
:02400E00393D3A
:00000001FF
